:020000040800F2
:1000000000800120150A00083B080008410800088C
:10001000470800084D0800085308000800000000C9
:100020000000000000000000000000005908000867
:100030006708000800000000750800088308000831
:1000400000000000690A0008690A0008690A00083F
:10005000690A0008690A0008690A00088F08000890
:10006000690A0008690A0008690A0008690A0008A4
:10007000690A0008690A0008690A0008690A000894
:10008000690A0008690A0008690A000800000000FF
:10009000000000000000000000000000690A0008E5
:1000A000690A0008690A0008690A0008690A000864
:1000B000690A0008690A0008690A0008690A000854
:1000C000690A0008690A0008690A0008690A000844
:1000D000690A0008690A0008690A000800000000AF
:1000E000690A0008690A0008690A0008000000009F
:1000F000000000000000000000000000690A000885
:1001000000000000690A0008690A0008690A00087E
:1001100000000000000000000000000000000000DF
:100120009D080008690A0008690A0008690A0008B1
:10013000690A000800000000000000000000000044
:10014000000000000000000000000000690A000834
:10015000690A0008690A0008690A0008690A0008B3
:10016000690A0008690A0008000000000000000099
:10017000000000000000000000000000000000007F
:10018000000000000000000000000000000000006F
:04019000690A0008F0
:1001940010B5054C237833B9044B13B10448AFF3BD
:1001A40000800123237010BD040000200000000023
:1001B400B40A000808B5034B1BB103490348AFF365
:1001C400008008BD0000000008000020B40A0008F8
:1001D40080B400AF584B1B6B574A43F004031363BE
:1001E400564B1B68554A23F003031360534B1B689B
:1001F400524A43F003031360504BDB684F4A23F029
:100204000303D3604C4B5B6C4B4A43F480735364DD
:100214004B4B5B684A4A23F040735360484B9B68DE
:10022400474A43F001039360454B9B68444A23F0DB
:1002340070639360424B9B68414A43F00063936050
:100244003F4BDB6A3E4A23F47003D3623C4B5B6B47
:100254003B4A23F01F035363394B5B6B384A43F02B
:100264000A035363364B9B68354A43F40073936027
:10027400334B9B68324A43F4807393602E4B1B6B61
:100284002D4A43F4800313632E4B1B6803F00103D0
:10029400012B0CD12B4B1B682A4A23F0010313605A
:1002A40000BF284B1B6803F00103012BF9D0254B39
:1002B4001B68244A23F060631360224B1B68214AA5
:1002C40043F4403313601F4B1B681E4A23F0C003E2
:1002D40013601C4B1B681B4A43F400531360194BF7
:1002E4001B68184A43F400631360164B5B69154A94
:1002F40043F004035361134B5B69124A43F0030355
:100304005361104B1B680F4A43F4806313600D4B19
:100314001B680C4A43F0100313600A4B0A4A9A60A4
:10032400084B0A4ADA60074B49F640425A6000BF5C
:10033400BD465DF8047B7047003802400008024067
:1003440000200140106402404C20014024000020A1
:1003540080B400AF144B1B6C134A43F002031364C4
:10036400124B1B68114A23F0100313600F4B5322E6
:100374009A620E4B7D22DA620C4B5B680B4A23F0C7
:1003840070035360094B5B68084A43F020035360D1
:10039400064B1B68054A43F00103136000BFBD46CA
:1003A4005DF8047B704700BF003802400004004041
:1003B40080B500AF1C4B1B78022B19D0022B2BDC11
:1003C400002B2BD0012B00D026E0012000F0E0F818
:1003D400164B1B68154A43F001031360144B9B68CA
:1003E400134A43F0805393600F4B02221A7018E0B3
:1003F400104B1B78012B13D10D4B9B680C4A23F037
:1004040040539360012000F0DFF80A4B00221A7079
:10041400054B00221A7003E000BF02E000BF00E0B9
:1004240000BF00BF80BD00BF200000201064024058
:1004340000200140A438012080B400AF084B1B68A1
:1004440003F02003202B05D1054B3D229A60054B78
:1004540001221A7000BFBD465DF8047B704700BFDF
:1004640000640240A438012080B400AF1A4B1B6B17
:10047400194A43F008031363184B1B68174A23F007
:100484000F031360154B1B68144A43F005031360F4
:10049400124B5B68114A23F0030353600F4B9B68B4
:1004A4000E4A43F00A0393600B4B5B6C0A4A43F415
:1004B400804353640A4B1B6A094A43F001031362E5
:1004C400064BDB68054A23F00F03D36000BFBD462B
:1004D4005DF8047B704700BF00380240000C024006
:1004E4000038014080B400AF0E4B1B6B0D4A43F043
:1004F400040313630C4B1B680B4A23F00C031360B7
:10050400094BDB68084A23F00C03D360064BDB6815
:10051400054A43F00803D36000BFBD465DF8047B81
:10052400704700BF003802400008024080B400AFAA
:10053400144B5B6C134A43F480435364124B9B6823
:10054400114A43F020039360104B9B680F4A43F019
:10055400020393600D4BDB680C4A23F00203D36063
:100564000A4B1B68094A43F002031360074B5B689C
:10057400064A43F00203536000BFBD465DF8047BA6
:10058400704700BF0038024000380140003C014081
:1005940080B483B000AF0346FB71FB79002B02D01B
:1005A400012B04D007E0074B01229A6103E0054BBD
:1005B40002229A6100BF00BF0C37BD465DF8047B80
:1005C400704700BF000C024080B483B000AF034604
:1005D400FB71FB79002B02D0012B05D009E0084BFD
:1005E4004FF480329A6104E0054B4FF400329A6173
:1005F40000BF00BF0C37BD465DF8047B704700BFE9
:10060400000C024080B485B000AF78607B6803F0D2
:100614000703FB600C4BDB68BB60BA684FF6FF0353
:100624001340BB60FB681A02BB68134343F0BF630B
:1006340043F40033BB60044ABB68D36000BF143783
:10064400BD465DF8047B704700ED00E080B483B0E4
:1006540000AF0346FB7197F90730002B0BDBFB79E6
:1006640003F01F02074997F907305B09012000FADC
:1006740002F241F8232000BF0C37BD465DF8047B2D
:10068400704700BF00E100E080B483B000AF0346D0
:100694003960FB7197F90730002B0ADB3B68DAB24B
:1006A4000C4997F907301201D2B20B4483F80023A6
:1006B4000AE03B68DAB20849FB7903F00F03043B14
:1006C4001201D2B20B441A7600BF0C37BD465DF856
:1006D400047B704700E100E000ED00E080B500AF6E
:1006E4000320FFF78FFF00214FF0FF30FFF7CCFF0F
:1006F40001210720FFF7C8FF02213820FFF7C4FFBC
:100704000720FFF7A3FF3820FFF7A0FF00BF80BD3D
:1007140080B483B000AF03463960FB7197F90730AA
:10072400002B0ADB3B68DAB20C4997F90730120157
:10073400D2B20B4483F800230AE03B68DAB20849DA
:10074400FB7903F00F03043B1201D2B20B441A7677
:1007540000BF0C37BD465DF8047B704700E100E044
:1007640000ED00E080B582B000AF78607B68013BAB
:10077400B3F1807F01D301230FE00A4A7B68013B78
:1007840053600F214FF0FF30FFF7C2FF054B0022EB
:100794009A60044B07221A60002318460837BD46A6
:1007A40080BD00BF10E000E080B400AF044B1B68C4
:1007B4000133034A136000BFBD465DF8047B7047F4
:1007C400A838012080B582B000AF00F0A1F80C4B2E
:1007D4001B680C4A934200D0FEE7094B1B680A4A87
:1007E400A2FB03239B091846FFF7BCFF78607B68D4
:1007F400002B00D0FEE700BF0837BD4680BD00BF18
:10080400000000200024F400D34D621080B500AF36
:10081400FFF7D8FFFFF762FFFFF726FEFFF762FE40
:10082400FFF784FEFFF7D4FCFFF792FD62B600BF2A
:10083400FFF7BEFDFCE780B400AFFEE780B400AF75
:10084400FEE780B400AFFEE780B400AFFEE780B4FB
:1008540000AFFEE780B400AF00BFBD465DF8047B87
:10086400704780B400AF00BFBD465DF8047B70479D
:1008740080B400AF00BFBD465DF8047B704780B50F
:1008840000AFFFF791FF00BF80BD80B400AF00BF91
:10089400BD465DF8047B704780B500AFFFF7CCFD23
:1008A40000BF80BD80B400AF164BD3F88830154A22
:1008B40043F47003C2F88830134B1B68124A43F0A8
:1008C40001031360104B00229A600F4B1B680E4A01
:1008D40023F0847323F4803313600B4B0B4A5A6068
:1008E400094B1B68084A23F480231360064B00223B
:1008F400DA60044B4FF000629A6000BFBD465DF8B9
:10090400047B704700ED00E0003802401030002402
:1009140080B487B000AF00233B6100237B610223D6
:10092400FB600023BB6002237B60344B9B6803F0B5
:100934000C033B613B69082B11D03B69082B44D85D
:100944003B69002B03D03B69042B04D03DE02C4BC6
:100954002C4A1A603DE02A4B2B4A1A6039E0274B97
:100964005B689B0D03F00103BB60244B5B6803F0E1
:100974003F037B60BB68002B0CD0234A7B68B2FB2F
:10098400F3F31E4A52689209C2F3080202FB03F30E
:100994007B610BE01B4A7B68B2FBF3F3174A526896
:1009A4009209C2F3080202FB03F37B61134B5B68F9
:1009B4001B0C03F0030301335B00FB607A69FB68E3
:1009C400B2FBF3F30E4A136003E00D4B0D4A1A60B9
:1009D40000BF0A4B9B681B0903F00F030B4AD35C4F
:1009E4003B61074B1A683B6922FA03F3044A13601C
:1009F40000BF1C37BD465DF8047B704700380240D9
:100A0400000000200024F40040787D01CC0A000896
:100A14000E48854672B6FFF745FF0D480D490E4A4C
:100A2400002302E0D458C4500433C4188C42F9D3D0
:100A34000A4A0B4C002301E013600432A242FBD3A8
:100A440000F012F8FFF7E2FEFEE70000008001204C
:100A54000000002004000020E40A00080400002034
:100A6400AC380120FEE7000070B50D4D0D4C641B41
:100A7400A4100026A64209D10B4D0C4C00F018F826
:100A8400641BA4100026A64205D170BD55F8043B92
:100A940098470136EEE755F8043B98470136F2E7EC
:100AA400DC0A0008DC0A0008DC0A0008E00A000886
:100AB400F8B500BFF8BC08BC9E467047F8B500BF47
:080AC400F8BC08BC9E46704717
:100ACC0000000000000000000102030406070809F2
:040ADC00B901000854
:040AE0009501000874
:040AE4000024F400F6
:0400000508000A15D0
:00000001FF
